S01B00005370656564204D6F64756C6174656420426F742E7372656314
S113000071C000001DC100008CC000008AC0000047
S113001088C00000E7C00000C0C0000082C000002B
S113002080C000007EC000007CC000007AC00000D8
S113003078C0000076C0000074C0000072C00000E8
S113004070C000006EC000006CC000006AC00000F8
S113005068C0000066C0000064C0000062C0000008
S113006060C000005EC000005CC000005AC0000018
S113007058C0000056C0000054C0000052C0000028
S113008050C000004EC000004CC000004AC0000038
S113009048C0000046C0000044C0000042C0000048
S11300A040C000003EC000003CC000003AC0000058
S11300B038C0000036C0000034C0000032C0000068
S11300C030C000002EC000002CC000002AC0000078
S11300D028C0000026C0000024C0000022C0000088
S11300E020C0000011241FBECFEFD1E2DEBFCDBF80
S11300F000E00CBF12E0A0E0B2E0E8E0FDE000E0C8
S11301000BBF02C007900D92A230B107D9F722E0CD
S1130110A2E0B2E001C01D92A133B207E1F701D21F
S1130120F1C56ECF8AB18E6F8AB9589A089510BA04
S113013011BA1092070110920801089581B18F60DD
S113014081B982B1807F82B9EAE0F1E0808188617F
S11301508083EBE0F1E080818861808308956C986E
S1130160749A08956D98759A0895E1DFE7DFF7DFD3
S1130170F9DFD8CF0895F894EAE6F0E08081826050
S11301808083EC9A78940895F894EAE6F0E080810C
S113019088608083ED9A789408951F920F920FB629
S11301A00F9211248F939F93AF93BF938091020278
S11301B090910302A0910402B09105020196A11D41
S11301C0B11D8093020290930302A0930402B093A2
S11301D00502BF91AF919F918F910F900FBE0F9029
S11301E01F9018951F920F920FB60F9211248F93A0
S11301F09F93AF93BF938091060290910702A091C1
S11302000802B09109020196A11DB11D8093060256
S113021090930702A0930802B0930902BF91AF9193
S11302209F918F910F900FBE0F901F901895F89487
S1130230E9E6F0E0808182608083E89A789408950A
S11302401F920F920FB60F9211248F939F93AF9327
S1130250BF9380910A0290910B02A0910C02B0917D
S11302600D020196A11DB11D80930A0290930B0209
S1130270A0930C02B0930D02BF91AF919F918F9107
S11302800F900FBE0F901F901895E1E2F1E01082DD
S11302908FEF8093250191E090932401109229011E
S11302A08093280110922B0180932A0110922D0132
S11302B080932C0189EA809320018BE08083089548
S11302C0EAE7F0E0108210927B0080E280937C00E9
S11302D080E880BF86E880830895883018F098E02D
S11302E090937B008770806280937C00EAE7F0E063
S11302F0808180648083808184FFFDCF8091790038
S1130300EAE7F0E090819061908310927B00089579
S113031092B1907F8F70982B92B9089586E0F8CFB0
S1130320089580E0F5CF089585E0F2CF08958AE03E
S1130330EFCF0895CF92DF92EF92FF920F931F9326
S1130340BC0180E090E0EDD328E431EE42E850E4D3
S11303504FD3BBD3CB01A0E0B0E0109202021092C5
S113036003021092040210920502109206021092E7
S11303700702109208021092090251E0E0E0C090D6
S11303800202D0900302E0900402F0900502009172
S11303900602109107022091080230910902452FAC
S11303A0081719072A073B0708F44E2F411109C003
S11303B0252FC816D906EA06FB0608F42E2F222399
S11303C0F1F2AFDF1F910F91FF90EF90DF90CF908C
S11303D008950F931F93BC0180E090E0A2D325EE13
S11303E030ED4AEA50E404D370D310920202109222
S11303F0030210920402109205020091020210916D
S113040003022091040230910502601771078207EC
S1130410930798F786DF1F910F910895CF93DF9389
S1130420EC017CDFCE01D5DFDF91CF910895CF932E
S1130430DF93EC0179DFCE017DDFDF91CF91089569
S1130440CF93DF93EC0173DFCE0174DFDF91CF91A3
S11304500895F8948ADE34DF18DF8DDE95DEE7DE5A
S1130460789408955E985F9808955E985F9A0895C9
S11304705C9A5D9A0895F6DF10920A0210920B02BC
S113048010920C0210920D022FEF8FE794E021508E
S113049080409040E1F700C0000080910A029091F2
S11304A00B02A0910C02B0910D0280932C02909348
S11304B02D02A0932E02B0932F0260912C02709112
S11304C02D0280912E0290912F020895CEDF10927A
S11304D00A0210920B0210920C0210920D022FEFDE
S11304E08FE794E0215080409040E1F700C0000085
S11304F080910A0290910B02A0910C02B0910D021E
S11305008093200290932102A0932202B0932302AD
S11305106091200270912102809122029091230225
S11305200895CF93DF9300D01F92CDB7DEB791DF4C
S11305309FDF04E010E0C12CD12C76019CDF4B013D
S11305405C01C4DF681579058A059B0510F4C501B3
S1130550B401C616D706E806F90610F46B017C014F
S1130560015011090115110549F724E6C20ED11CE9
S1130570E11CF11C0F2EF8E2AF2EBB24B394F02D36
S11305800F2EFAE22F2E33243394F02D31E03983E9
S11305901A8210920E0283E0A0DE80931F0282E092
S11305A09CDE80931E0281E098DE982E80931D02CB
S11305B080901F0290E088199109BC0112F46F5FCA
S11305C07F4F759567957093180260931702809119
S11305D0150290911602FB01E81BF90BFC83EB83D7
S11305E0F0931A02E093190200911B0210911C026D
S11305F0060F171F10931C0200931B02882777FD18
S11306008095982F90D220E030E040E05FE317D34C
S11306102B013C018B819C81880F991F6B817C810C
S1130620660F771F660F771F660F771F680F791F96
S1130630882777FD8095982F76D29B01AC01C30162
S1130640B20172D12B013C01B801882777FD809556
S1130650982F69D22FE632E143E85AE3F0D29B01A6
S1130660AC01C301B20160D1609311027093120214
S1130670809313029093140223D29B017093270258
S1130680609326026E3C71053CF02DEC30E0309313
S113069027022093260209C023333F4F34F4E3E3B7
S11306A0FFEFF0932702E093260280911E0280312F
S11306B008F0B6C0FFE0F81508F4B2C0F91508F464
S11306C0AFC080910002F5018083F10180838AE547
S11306D090E0A4DE88248394912C16E4FFEF2FEF9E
S11306E03CE2F15020403040E1F700C00000EEDE73
S11306F02B013C01C0DE641575058605970508F4D9
S11307005FC0C414D504E604F70408F06AC0C61632
S1130710D706E806F90608F064C081E0881691045B
S1130720A9F4F5011083F101108382E390E088DEDF
S1130730FEDD82E0D2DD8131E0F7F5011082F101C6
S113074010826894882481F8912CC8CFF2E08F1627
S11307509104F1F4F5011083F101108382E390E038
S113076066DEE2DD82E0B9DD8131E0F782E390E02C
S11307705EDEDADD82E0B1DD8131E0F7F501108281
S1130780F10110820F2EF3E08F2EF02D912CA6CFC5
S1130790F3E08F16910409F0A1CFF5011083F10164
S11307A0108382E390E04CDEC2DD82E096DD81318D
S11307B0E0F7F5011082F101108289809A808ECFD2
S11307C0C414D504E604F70460F4C616D706E80694
S11307D0F90638F480910002F5018083F1018083E9
S11307E01FC04C145D046E047F0408F077CF6C15B1
S11307F07D058E059F0508F071CF80910002843637
S113080021F486E48093000205C0863419F484E65A
S11308108093000280910002F5018083F1018083BE
S113082080911E028A3070F480910E0281110AC0F8
S113083075DD80910002F5018083F101808381E000
S113084080930E02809126029091270218161906B1
S11308508CF420910E0221110DC09093100280930C
S11308600F025CDDE6E2F2E080818E5CF50110822D
S1130870F101808380912602909127029923C4F488
S113088020910E02211114C09093100280930F0244
S113089091958195910990932702809326023EDDDC
S11308A0E6E2F2E080818E5CF5018083F101108242
S11308B080911E028B3070F180911F028B3050F1B9
S11308C080911D028B3030F180910F0290911002C3
S11308D01816190664F480910E02811108C01EDDF9
S11308E080910F028E5CF5011082F101808380916A
S11308F00F029091100299236CF480910E028111E1
S113090009C00CDD90910F0282E3891BF5018083FD
S1130910F1011082809117029091180290931602AF
S11309208093150236CE5058BB27AA270ED04DC14E
S11309303ED130F043D120F031F49F3F11F41EF446
S113094033C10EF4E095E7FB29C1E92F4FD180F3C1
S1130950BA17620773078407950718F071F49EF5B8
S113096067C10EF4E0950B2EBA2FA02D0B01B9012F
S113097090010C01CA01A0011124FF27591B99F011
S1130980593F50F4503E68F11A16F040A22F232F1D
S1130990342F4427585FF3CF469537952795A7956D
S11309A0F0405395C9F77EF41F16BA0B620B730B14
S11309B0840BBAF09150A1F0FF0FBB1F661F771F85
S11309C0881FC2F70EC0BA0F621F731F841F48F43A
S11309D0879577956795B795F7959E3F08F0B3CFC0
S11309E09395880F08F09927EE0F979587950895AA
S11309F00CD0EBC0E3D040F0DAD030F021F45F3F0C
S1130A0019F0CCC0511115C1CFC0F0D098F399237F
S1130A10C9F35523B1F3951B550BBB27AA276217BE
S1130A207307840738F09F5F5F4F220F331F441F03
S1130A30AA1FA9F333D00E2E3AF0E0E830D091503B
S1130A405040E695001CCAF729D0FE2F27D0660F28
S1130A50771F881FBB1F261737074807AB07B0E867
S1130A6009F0BB0B802DBF01FF2793585F4F2AF07D
S1130A709E3F510568F092C0DCC05F3FECF3983EA6
S1130A80DCF3869577956795B795F7959F5FC9F7DA
S1130A90880F911D9695879597F90895E1E0660F63
S1130AA0771F881FBB1F621773078407BA0720F0DC
S1130AB0621B730B840BBA0BEE1F88F7E095089545
S1130AC004D06894B111B5C0089598D088F09F57A8
S1130AD090F0B92F9927B751A0F0D1F0660F771F86
S1130AE0881F991F1AF0BA95C9F712C0B13081F066
S1130AF09FD0B1E008959CC0672F782F8827B85FF6
S1130B0039F0B93FCCF3869577956795B395D9F7C6
S1130B103EF490958095709561957F4F8F4F9F4FD0
S1130B200895E89409C097FB3EF4909580957095DC
S1130B3061957F4F8F4F9F4F9923A9F0F92F96E925
S1130B40BB279395F695879577956795B795F1119A
S1130B50F8CFFAF4BB0F11F460FF1BC06F5F7F4F37
S1130B608F4F9F4F16C0882311F096E911C0772349
S1130B7021F09EE8872F762F05C0662371F096E852
S1130B80862F70E060E02AF09A95660F771F881F21
S1130B90DAF7880F9695879597F9089597F99F67DF
S1130BA080E870E060E008959FEF80EC08950024F1
S1130BB00A941616170618060906089500240A94BE
S1130BC012161306140605060895092E0394000C44
S1130BD011F4882352F0BB0F40F4BF2B11F460FFD3
S1130BE004C06F5F7F4F8F4F9F4F089557FD9058FC
S1130BF0440F551F59F05F3F71F04795880F97FBDD
S1130C00991F61F09F3F79F0879508951216130696
S1130C101406551FF2CF4695F1DF08C016161706C5
S1130C201806991FF1CF86957105610508940895FA
S1130C30E894BB2766277727CB0197F908950BD053
S1130C40C4CFB5DF28F0BADF18F0952309F0A6CF9A
S1130C50ABCF1124EECFCADFA0F3959FD1F3950F4C
S1130C6050E0551F629FF001729FBB27F00DB11D2C
S1130C70639FAA27F00DB11DAA1F649F6627B00DBC
S1130C80A11D661F829F2227B00DA11D621F739FA5
S1130C90B00DA11D621F839FA00D611D221F749FB3
S1130CA03327A00D611D231F849F600D211D822FFA
S1130CB0762F6A2F11249F5750408AF0E1F0882341
S1130CC04AF0EE0FFF1FBB1F661F771F881F91504E
S1130CD05040A9F79E3F510570F060CFAACF5F3F07
S1130CE0ECF3983EDCF3869577956795B795F79581
S1130CF0E7959F5FC1F7FE2B880F911D9695879509
S10B0D0097F90895F894FFCF60
S1050D0846009F
S9030000FC
